:020000040800F2
:1000000008B4012091640008595F00085B5F000894
:100010005D5F00085F5F0008615F0008000000008E
:10002000000000000000000000000000635F000806
:10003000655F000800000000675F0008695F000856
:10004000B5640008B9640008BD640008C164000814
:10005000C5640008C9640008CD640008D1640008C4
:10006000D5640008D9640008DD640008E164000874
:10007000E5640008E9640008ED640008F164000824
:10008000F5640008F9640008FD64000801650008D3
:1000900005650008096500080D6500081165000880
:1000A00015650008196500081D6500082165000830
:1000B00025650008296500082D65000831650008E0
:1000C00035650008396500083D6500084165000890
:1000D00045650008496500084D6500085165000840
:1000E00055650008596500085D65000861650008F0
:1000F00065650008696500086D65000871650008A0
:1001000075650008796500087D650008816500084F
:1001100085650008896500088D65000891650008FF
:10012000956500086D5F0008996500089D650008E9
:10013000A16500080000000000000000A56500089F
:10014000A9650008AD650008B1650008B56500083F
:10015000B9650008BD650008C1650008C5650008EF
:10016000C9650008CD650008D1650008D56500089F
:10017000D96500085B610008DD650008000000002B
:1001800000000000E1650008000000000000000021
:10019000E56500080000000000000000E9650008B7
:1001A000000000000000000000000000ED650008F5
:1001B000F1650008F5650008F9650008FD650008AF
:1001C0000166000830B504008BB000F0C3802568DC
:1001D00094F8BD0328B9002184F8BC13204600F030
:1001E00015FD032084F8BD03E96BC8055CBF002141
:1001F0002161206800F0A5FF83B0211D68463422EC
:1002000001F0D0FB0EBC206800F0D2FE002840F0C8
:100210009E802068002100F09AFF6068002100287D
:1002200000F04580C1EBC10204EB8200012380F89D
:100230003D3080F83C10A0F842100022002380F8E6
:100240003F20436482640365491C6068C9B28142EF
:100250002DD2C1EBC10204EB8200012380F83D30B6
:1002600080F83C10A0F842100022002380F83F20C4
:10027000436482640365491C6068C9B2814216D236
:10028000C1EBC10204EB8200012380F83D3080F80D
:100290003C10A0F842100022002380F83F20436465
:1002A00082640365491C6068C9B28142BAD3606840
:1002B0000021002800F04080C1EBC10204EB820065
:1002C000002380F8FC1180F8FD3180F8FF31C0F880
:1002D0000432C0F80832C0F81032491C6068C9B254
:1002E000814229D2C1EBC10204EB820080F8FC11EB
:1002F00080F8FD3180F8FF31C0F80432C0F80832D0
:10030000C0F81032491C6068C9B2814214D2C1EBF6
:10031000C10204EB820080F8FC1180F8FD3180F806
:10032000FF31C0F80432C0F80832C0F81032491C5E
:100330006068C9B28142BFD383B0211D68463422B0
:1003400001F030FB0EBC206800F01CFF28B1022039
:1003500084F8BD0301200BB030BD84F838000121C2
:1003600084F8BD13606A012804BF204601F0C5FB74
:10037000206801F053FA00200BB030BD10B50446E0
:1003800094F8BC232068012A01D1022010BDA36A81
:100390000122012B84F8BC2306D1A269012A03D0D3
:1003A000826B42F48032826301F02AFA206800F006
:1003B000C2FE002084F8BC0310BD00002DE9F04F00
:1003C000064687B030680290019001F066FA002876
:1003D00040F0EE82306801F02FFA002800F0E88249
:1003E000306801F029FA800704D53068416901F0CE
:1003F00002014161306801F01FFA000340F1CF8033
:10040000306801F01EFA00240500019806F5017716
:1004100000F5306800F0C380E80740F1B88030682C
:10042000E1B201F01CFA81465FEAC97064D501218E
:10043000C8F808103168086C01EB441101F5306B05
:10044000DBF808103269012A42D10A0716D5DFF815
:100450006835984205D3080444BF4FF40041CBF8F7
:100460000810304600F04BFC306806F5717201212F
:1004700001F02EFA0820CBF808003DE08A0603D5EB
:100480002020CBF8080037E011F0280F34D1DFF836
:100490002825904201D3080420D43868DBF81010D6
:1004A000C1F31201411A3961796808447860E1B2F8
:1004B000304600F02AFC002C04BFD6F810020028B9
:1004C0001AD1306806F57172012101F001FA13E0CA
:1004D000DFF8E82490420BD1080404D54FF4004122
:1004E000CBF8081008E0880644BF2021CBF808109C
:1004F000E1B2304600F009FC5FEA09702CD53068A3
:10050000D0F840B000EB441000F5306081683269EB
:10051000012A05D1DFF8A0349B450AD304E000BFCF
:10052000DFF89824934504D1090444BF4FF40042F6
:100530008260304600F0E3FBDFF87C04834507D39C
:100540003169012904D1306806F5717201F0C0F9F2
:100550005FF00800C8F808005FEAC96044BF1021D6
:10056000C8F808105FEA89600AD53169012904D109
:10057000306806F5717201F0ABF92020C8F8080068
:100580005FEA894044BF4FF40051C8F80810641C6A
:100590006D081C37002D08F120087FF43DAF30684E
:1005A00001F04AF9400340F1AF80306801F050F9A2
:1005B000019A0199070002F500624FF0000906F167
:1005C000480801F51061059200F09E800391F8073C
:1005D00040F18F8030685FFA89F101F04BF90446F1
:1005E000039DE00727D50599486B059B012209F07B
:1005F0000F018A40904358630120A86031690129A6
:1006000006D1D8F8000058F8041C0144C8F80010BE
:100610005FFA89F1304600F082FB3069012808BF9B
:10062000B9F1000F07D1306D28B9306806F5717245
:10063000012101F04DF9200744BF0821A960E0061F
:1006400044BF1021A960600644BF4021A960A007F3
:1006500044BF0221A96020064BD535680495A8F156
:100660000C04A0696169814243D3D4F808A0081A38
:10067000824588BF82460AF103004FEA900A05EBE3
:10068000491000F5106006901CE000BFD4F808B0D7
:10069000411A8B4588BF8B460BF103004FEA900A45
:1006A0003069C0B200901FFA8BF3E1685FFA89F2FB
:1006B000284601F043F8E0685844E060A1698B44A3
:1006C000C4F818B0069A6069A16993699BB2534552
:1006D00003D3814201D20028D8D1814209D30498A2
:1006E00000F500600122416B09F00F039A4091432D
:1006F00041637F0803982030002F09F1010903901E
:1007000008F11C087FF463AF306801F095F8002809
:1007100019D5019800F50060416849084900416019
:1007200096F8F403012806D1002186F8F413304628
:1007300000F001FC02E0304600F02BFB306841691C
:1007400001F0004141613068019C01F075F800053D
:1007500004F500640AD5A168C80744BF304600F01C
:1007600003FB3068416901F400614161306801F0C8
:1007700063F8000117D53168486900F000604861EE
:1007800096F8F40360B9012286F8F423486DC0F3AB
:100790008300C6F8F8030121304600F0CCFB02E0EC
:1007A000304600F0E1FA306801F046F8C00460D548
:1007B00061684908490061601021306800F0FBFD64
:1007C000706800224FF67F3140B3019800EB42136E
:1007D00003F5106503F53063A960521C2F6827F4F8
:1007E00000172F6099601D6825F400151D6073685F
:1007F0009A4213D200EB421303F5106503F5306300
:10080000A960521C2F6827F400172F6099601D689B
:1008100025F400151D6073689A42D7D3E06940F053
:100820000110E061306B50B1D4F8840040F00B004F
:10083000C4F88400606C40F00B00606409E06069FB
:1008400040F4005040F02B006061206940F00B0044
:10085000206106F57172206820F4FE602060316925
:100860003068C9B201F034F83068416901F4805150
:100870004161306800F0E0FF800416D5306801F077
:1008800010F8306800F0A6FDF06001F0D7F90146DD
:10089000F2683068D2B200F0E8FB304600F04CFA63
:1008A0003068416901F400514161306800F0C4FFD3
:1008B000C00637D53068816921F010018161029846
:1008C000046A04F00F01C1EBC10006EB800000F5E3
:1008D000FE75C4F34340022812D147F6F07004427B
:1008E0001BD0E9680298C4F30A1200F03DFFE968E2
:1008F000AA69C4F30A1001448018E960A8610CE0F9
:1009000006280AD10298082206F5717100F02CFF22
:10091000A969C4F30A104118A9613068816941F0DE
:1009200010018161306800F087FF000707D530466D
:1009300000F0FEF93068416901F00801416130685A
:1009400000F07AFFC00208D50021304600F029FAF5
:100950003068416901F480114161306800F06CFF3A
:10096000800208D50021304600F017FA306841694E
:1009700001F400114161306800F05EFF400007D5CE
:10098000304600F012FA3068416901F0804141615F
:10099000306800F051FF40070AD531684C686007A5
:1009A00044BF304600F005FA306841680C434460AB
:1009B00007B0BDE8F08F00000B30544F0A31544FA0
:1009C00010B5044694F8BC03012801D1022010BDE3
:1009D000012084F8BC0384F83810206800F002FF7E
:1009E000002084F8BC0310BD70B5054601F00F006F
:1009F000C0EBC00405EB84000E0647BF00F13C04C9
:100A0000012000F5FE74002001F00F0160702170DC
:100A1000A260E370607808B12178E180022B04BF06
:100A20000020207195F8BC03012801D1022070BD7F
:100A3000012085F8BC032146286800F0D9FC00207D
:100A400085F8BC0370BD10B5044601F00F00C0EB83
:100A5000C00204EB82000B0647BF3C30012200F5C8
:100A6000FE70002201F00F014270017094F8BC1377
:100A7000012901D1022010BD012284F8BC230146C6
:100A8000206800F0F0FC002084F8BC0310BD30B5F5
:100A90001C4601F00F03C3EBC30500EB850303F510
:100AA000FE7381B05C61002500249C6101F00F01A0
:100AB000DA605D7019700469012C08BF1A6102695F
:100AC00000680029D2B2194604D100F0CCFD002004
:100AD00001B030BD00F002FD002001B030BD01F0DA
:100AE0000F01C1EBC10200EB8200D0F81402704785
:100AF00030B51C4601F00F03C3EBC30500EB8503C3
:100B00003C3381B05C61012500249C6101F00F0140
:100B1000DA605D7019700469012C08BF1A610269FE
:100B200000680029D2B2194604D100F09CFD0020D3
:100B300001B030BD00F0D2FC002001B030BD30B5B6
:100B400081B005460C46696804F00F00814238BF49
:100B500001202ED3210608D5C0EBC00205EB820090
:100B600000F13C0101234B7007E0C4EBC40105EB2D
:100B7000810000F5FE7100224A700120887004F0A7
:100B80000F040C7095F8BC03012808BF022010D098
:100B9000012085F8BC03286800F0F2FD34B929690A
:100BA000286805F57172C9B200F092FE002085F840
:100BB000BC0301B030BD10B5044601F00F006268FF
:100BC000824201D2012010BDC0EBC00204EB8200C2
:100BD0000B0647BF3C30012200F5FE7000220023C7
:100BE0004270837001F00F01017094F8BC13012969
:100BF00001D1022010BD012284F8BC2301462068E7
:100C000000F0D6FD002084F8BC0310BD10B586B0FE
:100C100069460022002300241CC10CC10068DFF8D3
:100C20007423904269D1DFF870430593206840F047
:100C300004002060216801F0040105910D21059850
:100C40000593226842F001022260206800F0010052
:100C5000059005980593226842F002022260022264
:100C6000206800F00200059005980192029300911F
:100C700003220A23039204936946DFF8200300F05D
:100C8000F7FF2821009102220021029101920A21FE
:100C90000322049103926946DFF8040300F0E8FFA1
:100CA000022101910022029243F227400321009089
:100CB00003910A2204926946DFF8E80200F0D8FFA7
:100CC00000200590216841F000512160002120683A
:100CD00000F00050059005980591226842F080428E
:100CE00022600022206800F08040059005984D2089
:100CF00001F0B3F84D2001F0DDF806B010BD00F5AD
:100D00007171D0F8040401F035B9C1EBC10300EBF7
:100D10008302D0F80404D2F8082201F05DB9C1EBD7
:100D2000C10300EB8302D0F80404926C01F09AB97D
:100D3000D0F8040401F039BA30B5044681B0E06857
:100D4000012508B9002503E0022818BF01F002FFC1
:100D5000D4F80404294601F016FAD4F8040401B0CA
:100D6000BDE8304001F0E4B910B50446D4F80404FD
:100D700001F00CFA206800F56060016841F00101A3
:100D80000160206A20B18848016841F006010160D5
:100D900010BDD0F8040401F002BAD0F8040401F048
:100DA00014BAD0F8040401F00EBAD0F8040401F02B
:100DB0000EBAD0F8040401F00CBA10B5017801297C
:100DC00029D17A4CC4F804040821C0F89842616023
:100DD0000022704820600121E2602261A161E2618D
:100DE00022626262E262226362632046FFF7EAF9EE
:100DF00008B101F0AFFE4FF40071204600F079FE1B
:100E000080220021204600F02DFE4FF4BA7201210D
:100E1000204600F027FE002010BD00B581B0D0F8BC
:100E20009802FFF7ABFA0146002019B102290CBF66
:100E30000120022001B000BD10B51C461346D0F8B9
:100E400098022246FFF7D0FD0146002021B1022979
:100E500001D1012010BD022010BD00B581B0D0F835
:100E60009802FFF7F0FD0146002019B102290CBFDE
:100E70000120022001B000BD00B581B0D0F8980279
:100E8000FFF75DFE0146002019B102290CBF0120C9
:100E9000022001B000BD00B581B0D0F89802FFF784
:100EA0008AFE0146002019B102290CBF0120022050
:100EB00001B000BDD0F8980201F07F02C2EBC2037E
:100EC000090600EB830002D590F83E00704790F8C9
:100ED000FE01704700B581B0D0F89802FFF770FDB1
:100EE0000146002019B102290CBF0120022001B0E7
:100EF00000BD00B581B0D0F89802FFF7F9FD0146BA
:100F0000002019B102290CBF0120022001B000BD50
:100F100000B581B0D0F89802FFF7B9FD0146002076
:100F200019B102290CBF0120022001B000BDD0F888
:100F30009802FFF7D4BD10B5044611B1012916D0AF
:100F400010BD206A30B101F0A3FD1748016821F0FF
:100F500006010160206800F56060016849084900E9
:100F60000160D4F80404BDE8104001F018B920680D
:100F700000F56060016841F001010160D4F80404EB
:100F800001F004F9206A20B10748016841F0060128
:100F9000016010BD000004403038024000080240EB
:100FA000000002400004024010ED00E0D0A2012049
:100FB0000EB481B00699012928D1816B21F48031CA
:100FC0008163C268DFF850190A40C260C26822F427
:100FD0004012C2600D99012903D1C16841F480110A
:100FE000C160DFF838291146491E0DD00369002B76
:100FF000FAD5016941F001010161521E04D0016975
:10100000CB07FAD4002122E0032120E0C168DFF8F9
:101010000C2941F04001C1601146491E0DD0036901
:10102000002BFAD5016941F001010161521E04D083
:101030000169CB07FAD4002100E003210A9A002AB3
:10104000826B0CBF42F4803222F480328263049AB5
:10105000012A07D1826842F006028260826842F06B
:1010600020028260084604B07047022A58D1DFF897
:10107000B028DFF8B03852189A4238BF4FF4705198
:1010800050D3DFF8A428DFF8A43852189A4238BFAA
:101090004FF4605146D3DFF89828DFF8983852189B
:1010A0009A4238BF4FF450513CD3DFF88C28DFF818
:1010B0008C3852189A4238BF4FF4405132D3DFF87F
:1010C0008028DFF8803852189A4238BF4FF43051E8
:1010D00028D3DFF87428DFF8743852189A4238BFE2
:1010E0004FF420511ED3DFF86828DFF86838521813
:1010F0009A4215D3DFF860C8DFF860288C44944525
:1011000038BF4FF400510DD3DFF85428DFF85438BE
:10111000511899422CBF4FF4C0514FF4E05101E0F7
:101120004FF41051C26822F47052C260C268114379
:10113000C16000207047816841F00101816000209A
:10114000704781684908490081600020704700B5F8
:1011500081B0C26822F0C0420129C26009D1C168D1
:1011600041F00051C160322001F0F6FC002001B0D6
:1011700000BD19B9C16841F08041F3E7012001B019
:1011800000BD00000EB42DE9F04F0246002302F529
:101190008274052023606360A3600C34401EF9D183
:1011A000139C906B002C0BD120F4001090631568F9
:1011B00045F040051560106840F08000106002E0C6
:1011C00040F40010906302F560652B6002F5006545
:1011D000286828600E98012808D10B9808B929685A
:1011E00007E0286840F00100286003E0296841F02A
:1011F000030129604FF484601061DFF82007014685
:10120000491E03D01669B606FAD400E00123102166
:101210001161401E03D01169C906FAD400E0012310
:10122000002028616861E8610999002900F0918037
:1012300002F51066CF07B1464FF0904A4FF67F3B5C
:101240004FF0006C0FD5D9F8000000284EBFC9F848
:1012500000C00020C9F800000020C9F81000C9F83B
:1012600008B001202036490810D10999002002F564
:101270003068CE07C1463DD5D8F8000000284EBFE3
:10128000C8F800C00020C8F800002BE03768002F25
:1012900006D5002814BFC6F800A0C9F800C001E0B8
:1012A000002737600027376106F1200EC6F808B026
:1012B000401CDEF80070002F06D5002814BFCEF8C1
:1012C00000A0C9F800C002E00027CEF80070002797
:1012D000401CCEF81070491ECEF808B006F140064A
:1012E000D4D1C2E70020C8F81000C8F808B0012027
:1012F00009F1200949082CD0D9F80060002E06D544
:10130000002814BFC9F800A0C8F800C002E00026F9
:10131000C9F800600027C9F8107009F1200EC9F85B
:1013200008B0401CDEF80060002E07D5002814BF6E
:10133000CEF800A0C8F800C002E000BFCEF80070F0
:10134000401CCEF81070491ECEF808B009F14009D3
:10135000D2D1286920F4807028610C98012808D126
:10136000DFF804162963296B41F4803141F0030151
:101370002963002191616FF08045556118B990692A
:1013800040F0100090619169DFF8E0050143916140
:101390000F9818B1906940F008009061012C05D1B8
:1013A000906940F0804040F0040090611846BDE82C
:1013B000F00F5DF810FB890141F020010161DFF8B9
:1013C0005C15491E04D002699306FAD400207047C8
:1013D0000320704700F50060806810F0060006D01A
:1013E000022818BF062801D1022070470F2070473D
:1013F00030B401250B781C4603F00F0305FA03F304
:101400004D7800EB4412012D00F5006012D1C56942
:101410009BB22B4302F51062C361106803041FD412
:1014200010688B68C978C3F30A0343EA814343EA2F
:1014300084530FE0C46944EA034402F53062C46196
:10144000106803040CD410688B68C978C3F30A03CE
:1014500043EA814343F0805343F400431843106050
:10146000002030BC704730B40B784D7800EB43124D
:1014700000F500600124012D03F00F03C56B04FA91
:1014800003F316D19BB225EA0303C36302F510628E
:10149000C369097801F00F018C40A4B223EA040467
:1014A000C4611168DFF8C80401401160002030BC3D
:1014B000704725EA0345C56302F53062C3690978C0
:1014C00001F00F018C4023EA0443C3611168DFF887
:1014D000A40401401160002030BC7047F0B4034602
:1014E0000878DFF894641C4604EB4015487801281E
:1014F00074D1486905F510650028286909D10640AE
:101500002E612E6946F400262E612869C00CC004A5
:1015100022E0C00CC0042861286906402E6188685A
:101520002E694F69C7197F1EB7FBF0F0DFF84C74C6
:1015300007EAC04006432E6128694E69C6F31206C9
:1015400030432861C878012807D1286920F0C040BD
:101550002861286940F000502861012A04D10869F7
:10156000002868D0686166E02E6846F004462E6068
:10157000C87801280FD04869002871D004F50064AC
:101580000122606B097801F00F018A40104360630B
:101590000020F0BC704704F50064A068C40504D4C2
:1015A000286840F00050286003E02C6844F0805424
:1015B0002C60002A0C78CD6852D1888AC01C800823
:1015C00000F04E8003EB043303F5805355F8041B01
:1015D0001960401EFAD1F0BC0020704705F5306557
:1015E0002869C00CC0042861286906402E618B68F8
:1015F000486940B92869C3F3120303432B61286982
:1016000040F4002011E01818401EB0FBF3F080B247
:101610002B69DFF8686306EAC04633432B612B6908
:101620008E687043C0F312001843012A286102D16A
:10163000C86800B16861C87801280DD104F500645C
:10164000A068C10504D4286840F00050286003E079
:10165000296841F080512960286840F004402860E2
:101660000020F0BC704730B40B78DFF80C5300EB6F
:1016700043144B78012B3ED14B6904F51064002BC9
:10168000236909D11D402561256945F4002525619F
:101690002369DB0CDB0414E0DB0CDB04236123692E
:1016A0001D4025618B684D69AB4288BF2B464B615D
:1016B000236943F40023236123694D69C5F31205AF
:1016C0002B43012A236103D1086980B360612EE0B6
:1016D000236843F0044323604A6962B300F5006065
:1016E0000123426B097801F00F018B401A434263DA
:1016F000002030BC704704F530642069C00CC00481
:10170000206123691D402561486908B188684861E6
:10171000206940F40020206120698B68C3F3120324
:101720001843012A206102D1C86800B160612068B5
:1017300040F004402060002030BC704781B0DDF8EC
:1017400004C0BCF1000F0CD1DB1C9B0800F0098029
:1017500000EB023000F5805051F8042B02605B1E54
:10176000FAD1002001B07047D21C920806D000F5D3
:101770008050036841F8043B521EFAD10846704776
:101780000A78497800EB421001290CBF00F510607F
:1017900000F530600168002904D41AB1016821F015
:1017A00080410160026842F400120260002070472C
:1017B0000A7800EB42104A78012A0CBF00F510604D
:1017C00000F53060026822F400120260C978032933
:1017D00018BF022903D1016841F080510160002047
:1017E0007047000000F500600901026822F4FE6203
:1017F000026001F4FE610368194301600020704734
:1018000000B500F5006081B0416821F0020141603F
:10181000032001F0A1F9002001B000BD00B500F5E2
:10182000006081B0416841F002014160032001F095
:1018300093F9002001B000BD01464869896908405C
:10184000704700F500618869C9690840000C70475D
:1018500000F500618869C969084080B27047024696
:1018600002EB411000F5306002F5006280685169BA
:1018700008407047024602F5006302EB4112186906
:101880005B6B01F00F0102F51062CB40DB01926847
:1018900003F08003184310407047406900F00100D6
:1018A000704700F5106100F500600A68D20AD202A4
:1018B0000A60826802F00602042A03D10A6842F034
:1018C00003020A60416841F4807141600020704762
:1018D000036CDFF8ACC0634500F5306002D30368E9
:1018E000002B16D4002303610129D0F810C04CF45A
:1018F000002CC0F810C0036943F0180303610369AA
:1019000043F0C043036104D14261016841F080218A
:101910000160002070470000BFFFBDFF410D0300C4
:10192000405327FF00350C00401E1BFF40420F00B4
:1019300000DC0BFF804F1200808CF9FE20D61300D4
:1019400060B6E5FE60E3160000D3CEFE40771B00D4
:10195000C05BB3FEC091210000CA91FE2075380023
:10196000E05459FEE09C41000001800000383C80BA
:10197000007833EC0078F3EFFFFF07E00000F81F7A
:101980000B30544F62B38B0708D0521E11F8013B45
:1019900000F8013B00F024808B07F6D1830740F06C
:1019A000208000BF103A07D330B4B1E83810103AA5
:1019B000A0E83810F9D230BC530724BFB1E80810B2
:1019C000A0E8081044BF51F8043B40F8043BD2079C
:1019D00024BF31F8022B20F8022B44BF0B78037090
:1019E0007047121F17D35B0009D151F8043B20F850
:1019F000023B1B0C121F20F8023BF6D20BE051F801
:101A0000043B00F8013B1B0A20F8023B1B0C121F91
:101A100000F8013BF3D238BF121D521E24BF11F84B
:101A2000013B00F8013BF8D8704730B4002513E0C3
:101A300050F8042BD30744BFA9F101039A18091FDA
:101A4000042942F8045BFAD213468C0744BF158080
:101A50009B1CC90748BF1D7050F8041B0029E7D123
:101A600030BC7047F0B40468656A0B0005D145EAE4
:101A70000245A5620020F0BC7047A06A05EB104546
:101A80000026581E2CD010F003010AD004F58277EE
:101A90005FFA86FC57F82C70761C491E05EB17453B
:101AA000F4D1800800F01C8004F58271F7B251F87F
:101AB000277005EB1745761CF7B251F8277005EB38
:101AC0001745761CF7B251F8277005EB1745761CC1
:101AD000F7B251F82710761C401E05EB1145E3D1F3
:101AE00004EB830045EA0245C0F800510020F0BC39
:101AF000704700684162002070470168012200239E
:101B0000C0F8FC2380F8F433886940F000608861F5
:101B1000486D40F0805040F0030048650020704759
:101B20002DE9F04104000E4661D04B4DD5F800047C
:101B300000F00F00B04207D285F80064D5F8000429
:101B400000F00F00B04252D12068810712D5400743
:101B500003D5A96841F4E051A9602078010703D5B5
:101B6000A86840F46040A860A968A06821F0F0016E
:101B70000143A9602178C8072BD56068012802D1EC
:101B800029688A0305E0022818BF032805D12968BF
:101B90008A0105D40120BDE8F08129688A0726D58D
:101BA000A968890840EA8100A86041F2893800F0FC
:101BB000E9FF0746A868616800F00C00B0EB810FF0
:101BC00007D000F0DFFFC01B4045F3D30320BDE882
:101BD000F081D5F8000400F00F0086420AD285F8A3
:101BE0000064D5F8000400F00F00B04202D00120DC
:101BF000BDE8F0812078410705D5AA68E06822F4A5
:101C0000E0520243AA602178080706D5A968206936
:101C100021F4604141EAC001A96000F0B9FFAA685F
:101C20000E490F4BC2F30312895CC84018600D487F
:101C3000006801F09DF90020BDE8F08108480068C7
:101C400070470748084A006813680849C3F38222AE
:101C5000895CC8407047000000380240CC6300082F
:101C6000440100204001002008380240AC64000814
:101C70002DE9F04F03460C464FF0000881B0C146F5
:101C8000C246654865490F220125266805FA08F510
:101C900005EA060EAE4540F0B180032606FA09F6C5
:101CA0006FEA060C6668012E18BF022E03D0112EB3
:101CB00018BF122E11D19E68E7680CEA060607FAD3
:101CC00009F73E439E605E6826EA05056668C6F32E
:101CD000001606FA08F635435D60DD68A6680CEA72
:101CE000050506FA09F63543DD606568022D18BF63
:101CF000122D10D14FEAD80503EB85050AF01C061A
:101D00002F6A02FA06FB27EA0B07D4F810B00BFA89
:101D100006F63E432E621D680CEA0506257905F09D
:101D2000030505FA09F535431D606568ED0065D5C5
:101D3000002600964FEA980C0D6845F480450D602A
:101D40000E6806F480460096009D354E56F82C70BD
:101D50000AF00C0502FA05F627EA0606314FBB42E7
:101D600008BF00271ED0304FBB4208BF012719D043
:101D70002E4FBB4208BF022714D02D4FBB4208BFD5
:101D800003270FD02B4FBB4208BF04270AD02A4F8E
:101D9000BB4208BF052705D0284FBB420CBF062712
:101DA000072700BF07FA05F535431D4E46F82C50AE
:101DB0006FEA0E0C056866680CEA0505F70348BF74
:101DC0004EEA05050560456866680CEA0505B70337
:101DD00048BF4EEA05054560856866680CEA05055A
:101DE000F70248BF4EEA05058560C56866680CEADB
:101DF0000505B60248BF4EEA0505C56008F10108B1
:101E0000B8F10F0F0AF1040A09F102097FF63CAF9D
:101E100001B0BDE8F08F0000003C014044380240B2
:101E2000083801400000024000040240000802405F
:101E3000000C024000100240001402400018024052
:101E40002A4B19684FF6FF020002114000F4E060CF
:101E50000843274908431860704730B4234B1C6877
:101E6000C4F30223C3F10705052D28BF0F2405D2B3
:101E70000125C3F1070405FA04F4641E1D1D072D96
:101E800034BF0023DB1E21409940012404FA03F3F0
:101E90005B1E1A4011430901020003D41548815406
:101EA00030BC7047144B02F00F021A4402F8041CB5
:101EB00030BC7047010007D4012200F01F010F4B16
:101EC0008A40400943F820207047401EB0F1807FCF
:101ED00001D3012070470A494860F02081F8130DB2
:101EE00000228A6007200860002070470CED00E0A7
:101EF0000000FA0500E400E018ED00E000E100E079
:101F000010E000E010B508B9022010BDD0F88C3206
:101F100013B10024C0F88C4209B1C0F88812012125
:101F200080F874120270FEF748FF002010BD0246D0
:101F3000002011B1C2F88C1270470220704700B522
:101F400081B0FEF76AFF002001B000BD10B5D0F8E7
:101F50008C2202241AB11268904700B9002420464E
:101F600010BD00B581B0D0F88C225368984700208E
:101F700001B000BD10B5044604F5207001F06BFA05
:101F80000121C4F86C1294F88012B4F88602C4F8E7
:101F9000700211F01F0203D0022A0FD007D314E001
:101FA00004F52071204601F007F8002010BD04F56B
:101FB0002071204601F066F9002010BD04F5207163
:101FC000204601F08FF9002010BD01F0800120466D
:101FD000FEF752FF002010BD10B5044610460A005F
:101FE00031D1D4F86C12032922D1D4F84C21D4F881
:101FF000501191420CD2521AC4F84C218A4228BF87
:102000000A46014692B2204601F0BBFA002010BDFC
:10201000D4F88C12086930B194F87402032802D104
:10202000096920468847204601F0B5FA002010BD16
:102030000529EBD10020C4F86C0200212046FEF7F0
:102040001BFF002010BDD4F88C22906940B194F899
:102050007402032804D1926920469047002010BDE5
:10206000022010BD10B504460800134651D1D4F823
:102070006C0202283CD1226A616A91420AD2521A49
:102080002262194692B2204601F060FA0023002233
:10209000002116E0E269B2FBF1F001FB1020A0B9CB
:1020A0008A4212D3D4F8700282420ED2002200215A
:1020B000204601F04BFA0020C4F8700200230022F1
:1020C00000212046FEF724FF1AE0D4F88C12C868DD
:1020D00030B194F87402032802D1C96820468847B9
:1020E00080212046FEF7C8FE204601F061FA07E095
:1020F000042818BF002803D180212046FEF7BCFE2B
:1021000094F87802012804BF002184F87812002096
:1021100010BDD4F88C22506940B194F874020328A1
:1021200004D1526920469047002010BD022010BD06
:1021300010B50446402300220021FEF77DFE012257
:102140004020C4F84421C4F85001402300228021DB
:102150002046FEF771FE01204021A061616284F8F3
:1021600074020021D4F89002C4F86C126160C4F8C3
:102170007C1230B1D4F88C2261685368C9B2204611
:102180009847002010BD01740020704790F8741229
:1021900080F87512042280F874220020704790F8AD
:1021A000751280F874120020704700B581B090F865
:1021B0007412032904D1D0F88C12C96901B188477F
:1021C000002001B000BD00207047002070470020B3
:1021D000704700B581B0012280F87422D0F88C22BB
:1021E00041685368C9B29847002001B000BD0000A3
:1021F0002DE9F04F8DB001F0E9F900F049FC01A89C
:102200000021002200230EC00EC0DFF81C49DFF8B9
:102210001C59216841F0800121600123206800F0F1
:102220008000009000260098216841F004012160A0
:10223000226802F0040200920098216841F0010136
:102240002160226802F0010200920098216841F0AA
:10225000020121604FF48011226802F00202009214
:1022600010220098DFF8C8088161019202930222CF
:10227000002303920493059301A901F0C3F9002000
:1022800000900022216841F4800121600021206833
:1022900000F48000009000983920FFF7DEFD39201F
:1022A000FFF708FEDFF88C08286000216960A9604C
:1022B00029610020E86068614FF4806128626862EB
:1022C000A862E8622863A961284601F04FFADFF8A6
:1022D0006808DFF86818286569650020A86500218E
:1022E0004FF480402866E9656966A966E966296752
:1022F00005F1500001F084FA01F0A2FF09A80021C5
:102300000022002380E84E00CDE9001202A84EC052
:102310000EC00820C5F8B000C5F8A810C5F8AC106C
:10232000C5F8B410C5F8BC1005F1A400DFF81068BA
:10233000C5F8A46001F0AEFF4FF48050099009A9E0
:1023400005F1A40002F01AF805F1A40001F0CCFF99
:1023500000210091019105F1A400694602F0DAF92B
:10236000302102910422039200210491002206925E
:1023700002A905F1A40001F0D1FF05F1A40002F0CB
:102380001AFBDFF8C007017885F82511427885F837
:102390002621817885F827110121C07885F8280148
:1023A000316205F1A40001F08FFF4FF40140ADF858
:1023B000000081209DF800108DF80C008DF80D10A4
:1023C0000A20022103AA02900191009201231E22F9
:1023D000BA2105F1500001F0C9FA0120ADF8000062
:1023E00000209DF800108DF80C008DF80D100A20CB
:1023F000022103AA02900191009201230D22BA2129
:1024000005F1500001F0B2FA0020ADF800008DF89F
:102410000C000A209DF800108DF80D1003AA02216F
:1024200002900191009201230D22BA2105F1500082
:1024300001F09CFA95F828010428BCBF042185F816
:1024400028110020306203AA95F82801F0620123C8
:102450004008706301203062ADF8000000209DF854
:1024600000108DF80C008DF80D100A20022102904A
:1024700001910092BA210B2205F1500001F076FA89
:1024800095F8270195F826114218B2F5807F1BDBDD
:10249000FF20ADF8000000209DF800108DF80C0022
:1024A0008DF80D100A20022103AA029001910092DA
:1024B00001236022BA2105F1500001F057FAFF20F4
:1024C000ADF80000002020E04018ADF8000003AA9D
:1024D0009DF801009DF800108DF80C008DF80D108E
:1024E0000A20022102900191009201236022BA2168
:1024F00005F1500001F03AFA95F8260195F82711F8
:102500000918ADF800109DF801009DF800108DF835
:102510000C008DF80D100A20022103AA02900191EF
:10252000009201236122BA2105F1500001F01EFA48
:1025300095F82601DFF81076ADF8000000209DF830
:1025400000108DF80C008DF80D100A20022103AA4E
:1025500002900191009201236322BA2105F15000FB
:1025600001F004FA95F82601ADF8000000209DF86E
:1025700000108DF80C008DF80D100A20022103AA1E
:1025800002900191009201236422BA2105F15000CA
:1025900001F0ECF948F29940ADF8000084209DF874
:1025A00000108DF80C008DF80D100A20022103AAEE
:1025B00002900191009201236222BA2105F150009C
:1025C00001F0D4F995F82501ADF8000000209DF840
:1025D00000108DF80C008DF80D100A20022103AABE
:1025E00002900191009201233522BA2105F1500099
:1025F00001F0BCF90A20ADF8000000209DF80010A1
:102600008DF80C008DF80D100A20022103AA02900B
:102610000191009201230922BA2105F1500001F035
:10262000A5F90697C8E00818ADF8000003AA9DF8C0
:1026300001009DF800108DF80C008DF80D100A2097
:10264000022102900191009201236022BA2105F13A
:10265000500001F08BF995F8260195F8271109181B
:10266000ADF800109DF801009DF800108DF80C00E9
:102670008DF80D100A20022103AA02900191009208
:1026800001236122BA2105F1500001F06FF995F89C
:102690002601ADF8000000209DF800108DF80C0018
:1026A0008DF80D100A20022103AA029001910092D8
:1026B00001236322BA2105F1500001F057F995F882
:1026C0002601ADF8000000209DF800108DF80C00E8
:1026D0008DF80D100A20022103AA029001910092A8
:1026E00001236422BA2105F1500001F03FF948F2BC
:1026F0009940ADF8000084209DF800108DF80C0082
:102700008DF80D100A20022103AA02900191009277
:1027100001236222BA2105F1500001F027F995F852
:102720002501ADF8000000209DF800108DF80C0088
:102730008DF80D100A20022103AA02900191009247
:1027400001233522BA2105F1500001F00FF902F002
:10275000F7F9F320C4F8DC030221022002F062FA48
:10276000DDE90423DFF8DC13022002F05FF902F058
:10277000F7F900BF95F8E40009280FD195F8250175
:10278000387095F82611797095F82701B8700820EF
:1027900095F8281187F80310A5F82A01002185F87B
:1027A000E4103846B5F82A1102F0B5FA5FF00000DF
:1027B000A5F82A0185F8240195F824010028FBD00A
:1027C00095F8E400022809D105F5967090E80E000E
:1027D00087E80E00002139731020DDE7032840F060
:1027E000B78095F8ED0095F8EE1000EB012895F80C
:1027F000EB0095F8EC1000EB012B95F8E90095F84B
:10280000EA1000EB012995F8E70095F8E81000EBD5
:10281000012A95F8E50095F8E61000EB0122ADF8E5
:1028200000209DF801009DF800108DF80C008DF837
:102830000D100A20022103AA0290019100920123A7
:102840000922BA2105F1500001F090F80BF10C00BB
:10285000ADF8000003AA9DF801009DF800108DF866
:102860000C008DF80D100A200221029001910092B7
:1028700001230122BA2105F1500001F077F80AF195
:102880001400ADF8000003AA9DF801009DF80010A7
:102890008DF80C008DF80D100A2002210290019194
:1028A000009201230222BA2105F1500001F05EF8E6
:1028B000A8F10100ADF8000003AA9DF801009DF801
:1028C00000108DF80C008DF80D100A2002210290E6
:1028D0000191009201230322BA2105F1500001F079
:1028E00045F8A9F10100ADF8000003AA9DF8010028
:1028F0009DF800108DF80C008DF80D100A200221B3
:1029000002900191009201230422BA2105F15000A6
:1029100001F02CF8069A4FF4A0430221284602F059
:1029200017FA0120ADF8000000209DF800108DF886
:102930000C008DF80D100A20022103AA02900191CB
:10294000009201230B22BA2105F1500001F00EF88C
:1029500095F8E40004280FD10A2102200291019089
:102960000097012395F8E520BA2105F1500001F008
:10297000CFF80820A5F82A0195F8E40005281DD114
:1029800095F8E60095F8E71000EB0122ADF800207D
:102990009DF801009DF800108DF80C008DF80D10C9
:1029A00003AA0A200221009202900191012395F8C6
:1029B000E520BA2105F1500000F0D8FF95F8E400B9
:1029C00008287FF4D7AE95F8E61095F8E50095F85D
:1029D000E72085F8261185F82501ADF800000020D4
:1029E00095F8E81085F8281185F827218DF80C0056
:1029F0000A209DF800108DF80D1003AA0221029004
:102A00000191009201233522BA2105F1500000F016
:102A1000ADFF95F8250195F8282195F827118DF837
:102A200010008DF813208DF81210042A95F8260155
:102A30008DF81100BCBF042285F8282100233362E1
:102A40000B1895F82821F262520872630122B3F53F
:102A5000807F3262FFF6E7ADFF20ADF80000002076
:102A60009DF800108DF80C008DF80D100A20022141
:102A700003AA02900191009201236022BA2105F17C
:102A8000500000F073FFFF20ADF800000020EBE5E0
:102A900000B593B0342106A802F02AFA01A800215B
:102AA000002200230EC006C028480091026842F0B0
:102AB00080520260006800F0805000900098244826
:102AC00000910121026842F4404202604FF4A022CA
:102AD000006800F44040009000980691079202219F
:102AE0000C914FF480020C210D920E91B422022120
:102AF0000F9210911191129106A800F091F802F036
:102B0000FBF902210291002203920F204FF4A05101
:102B1000019004914FF480520592052101A8FEF71F
:102B2000FFFF13B000BD000030380240000000205D
:102B30000008024000000550005C0040A086010033
:102B4000000C004000800008D00200204038024005
:102B5000007000407047000030B581B0044600F0BE
:102B600011F814F1010F054602D0054801786418E8
:102B700000F008F8401BA042FAD301B030BD00BFFE
:102B80003801002001484068704700BF380100202C
:102B900030B5DFF8C443606800F00C00042806D0AC
:102BA000082807D00C2823D0DFF8B00330BDDFF8A9
:102BB000B00330BD226820680023410202F03F02CA
:102BC00005D52568DFF89813C5F3881004E0206860
:102BD000DFF88813C0F38810A1FB000102F0C8F9E8
:102BE0002168C1F30141491C4900B0FBF1F030BD3F
:102BF00000232268206841022068C0F388104CBF7F
:102C0000DFF85C13DFF8541302F03F02A1FB000170
:102C100002F0AEF92168C1F30271B0FBF1F030BDF2
:102C20002DE9F041064682B03078DFF83853C1070D
:102C300059D5A86800F00C0004280FD0A86800F04F
:102C40000C00082802D16868410207D4A86800F087
:102C50000C000C280CD16868410209D52868810352
:102C600041D5706800283ED1012002B0BDE8F08156
:102C70007068B0F5803F04D1286840F48030286047
:102C800011E0B0F5A02F286806D140F4802028601C
:102C9000296841F4803105E020F4803028602968FB
:102CA00021F480212960706870B1FFF76BFF044642
:102CB0002868810317D4FFF765FF001B6528F7D349
:102CC000032002B0BDE8F081FFF75CFF04462868EE
:102CD000810308D5FFF756FF001B6528F7D30320B3
:102CE00002B0BDE8F0813078810720D5A86810F0E7
:102CF0000C0F0FD0A86800F00C00082802D16868FB
:102D0000410207D5A86800F00C000C2827D168689C
:102D1000410224D42868810702D5F0680128A3D194
:102D20002968306921F0F80141EAC0012960317851
:102D3000080751D570698C49E8B30122C1F8802E8B
:102D4000FFF720FF0446686F810745D4FFF71AFF9D
:102D5000001B0228F7D9032002B0BDE8F081F0681B
:102D60008149C0B101220A60FFF70CFF04462868C0
:102D7000810708D4FFF706FF001B0228F7D90320BC
:102D800002B0BDE8F0812868316920F0F80040EA1F
:102D9000C1002860CBE70860FFF7F4FE044629680D
:102DA0008807C4D5FFF7EEFE001B0228F7D90320E1
:102DB00002B0BDE8F081C1F8800EFFF7E3FE0446E3
:102DC000686F810708D5FFF7DDFE001B0228F7D9E1
:102DD000032002B0BDE8F0813078410767D5286C48
:102DE0000024C1000AD400940124296C41F08051D0
:102DF0002964286C00F08050009000985B4F386880
:102E0000C10513D4386840F480703860FFF7BAFE0B
:102E100080463868C10509D4FFF7B4FEA0EB08006E
:102E20000228F6D9032002B0BDE8F081B06801287D
:102E300003D1286F40F001000FE00528286F06D16C
:102E400040F004002867286F40F0010005E04008CA
:102E500040002867286F20F00400286741F2893776
:102E6000B06878B1FFF78EFE8046286F810719D4CD
:102E7000FFF788FEA0EB0800B842F6D3032002B0AB
:102E8000BDE8F081FFF77EFE8046286F810709D5F7
:102E9000FFF778FEA0EB0800B842F6D3032002B09B
:102EA000BDE8F0811CB1286C20F080502864B06926
:102EB00000284DD0A96801F00C0108293FF4D4AED8
:102EC0000228294C33D100202066FFF75BFE07461D
:102ED0002868810108D5FFF755FEC01B0228F7D9E5
:102EE000032002B0BDE8F081F069316A726A0843DC
:102EF000B16A490840EA8210491E40EA0140F16A7D
:102F0000326B40EA016040EA02706860012020668E
:102F1000FFF738FE04462868810119D4FFF732FE16
:102F2000001B0228F7D9032002B0BDE8F081002081
:102F30002066FFF727FE04462868810108D5FFF7C1
:102F400021FE001B0228F7D9032002B0BDE8F08162
:102F5000002002B0BDE8F081043802400024F400F3
:102F600000366E0100380240000047420070004009
:102F700030B50F4D0F4B2A7804464FF47A7118681C
:102F8000B1FBF2F281B0B0FBF2F0FEF79EFF58B950
:102F9000102C09D2002221464FF0FF30FEF75DFFD2
:102FA000AC60002001B030BD012001B030BD00BFD9
:102FB000380100204401002070B50D4682B004465F
:102FC000287810F060000CD0202818BF402840F06E
:102FD000EF80D4F88C22936820469847002002B0F6
:102FE00070BD6878092800F2E380DFE810F01A016C
:102FF0003701E1003001E1009A000A00E100070119
:10300000BD006888010A491E0E2900F2D180DFE860
:1030100001F061511ECFCF1408CFCFCFCFCFCFCF8C
:103020006800207C002840F0C380D4F88C120A6B22
:10303000684690470721417059E0207C002840F005
:10304000B780D4F88C124A6B684690474FE0C0B204
:10305000052800F2AD80DFE800F0261F18110A03F2
:10306000D4F88822207C9369694698473FE0D4F8D9
:103070008822207C53696946984738E0D4F8882232
:10308000207C13696946984731E0D4F88822207C77
:10309000D368694698472AE0D4F88822207C936850
:1030A0006946984723E0D4F88822207C5368694613
:1030B00098471CE0207CD4F88C120028684604D184
:1030C000896A88470222427011E0C96A8847022251
:1030D00042700CE0D4F88822207C13686946984737
:1030E00005E0D4F88822207CD36969469847BDF86A
:1030F000001089B1E988002900F0BB80BDF80010FC
:10310000EA88914288BF1146ADF800100146BDF82B
:103110000020204600F00BFAE888002840F0AC8040
:10312000A7E0A888002804BFE888002840D16D885F
:10313000802D3DD294F87402032805F07F0537D026
:1031400084F8765229462046FDF7C4FE204600F05A
:1031500022FA002D07BF012184F87412022084F89E
:103160007402002002B070BD454E6888307031781E
:10317000084602281CD294F87422022A23D0032A7B
:103180002DD139B9022084F8740261602046FEF71F
:10319000E8FE6EE0616888426BD0C9B22046FEF757
:1031A000E0FE317861602046FEF7D0FE022860D153
:1031B00080212046FDF760FE00212046FDF75CFEE1
:1031C000002002B070BD002953D06060032084F855
:1031D00074022046FEF7BAFE0228E9D049E08021B9
:1031E0002046FDF749FE00212046FDF745FE3178D7
:1031F0002046FEF7B6FE002002B070BDE888012828
:10320000D6D194F87402401E012804D9801ECFD173
:103210000122211D15E00020A060012204F1080117
:103220000FE094F87402401E0228C1D8EA88022AEE
:10323000BED1D4F87C02012100B10321E16004F188
:103240000C01204600F073F9002002B070BD6888C0
:10325000012811D10121C4F87C120AE094F874020B
:10326000401E0228A4D86A88012A05D10020C4F88B
:103270007C02204600F08FF9002002B070BD0000F3
:1032800000AC012030B50D4681B00446287810F01E
:1032900060001CBF2028402818D194F87402401EFA
:1032A000022813D82A79022A10D2D4F88C229368E3
:1032B000204698470146E888002808BF00290DD11C
:1032C000204600F068F9002001B030BD8021204682
:1032D000FDF7D2FD00212046FDF7CEFD002001B014
:1032E00030BD000030B581B00A780446087912F08C
:1032F00060030BD0202B18BF402B77D1D4F88C2241
:10330000936820469847002001B030BD02F060026B
:10331000202A07D1D4F88C229368204601B0BDE85A
:10332000304018474A78032A60D8DFE802F03615A3
:103330005F0294F87432022B15D0032B56D14A88C1
:103340002ABB002818BF802821D0C988F9B90146B6
:103350002046FDF791FD1AE094F87422022A02D06B
:10336000032A0AD042E0002818BF80283ED0014638
:103370002046FDF781FD80213DE04A88002A3DD1AD
:1033800010F07F0103D001462046FDF784FD204662
:1033900000F001F9002001B030BD94F87412022948
:1033A00002D0032918D021E0002818BF80281DD1A1
:1033B00000F07F0101EB810204EB820100064CBFAB
:1033C000143101F5A071002008600222204600F0AF
:1033D000AEF8002001B030BD00F00F0101EB81021A
:1033E000030604EB82010CD58969F9B980212046D6
:1033F000FDF742FD00212046FDF73EFD002001B013
:1034000030BDD1F844110029F0D000F07F0202EB6A
:10341000820104EB810101F5A075002818BF802806
:103420000DD10020286002222946CFE700F07F015D
:1034300001EB810204EB820202F11405EDE7014683
:103440002046FDF737FD401E8041C043C00F286075
:1034500002222946BAE70A7802704B7843708A78CC
:10346000CB7802EB032CA0F802C00A794B7902EB6F
:10347000032CA0F804C08A79C97902EB0123C38028
:10348000704710B504468021FDF7F6FC2046BDE8E4
:1034900010400021FDF7F0BC030000D1704770B46C
:1034A0000578002475B14678641C5EB18578641C8B
:1034B00045B1C678641C002E04D010F8045F641C6B
:1034C000002DF0D12406E40DA41C1480107808709F
:1034D00003224A700222187838B31C78D5B2521CE5
:1034E0004C55D6B200208855521C5878E8B1D4B259
:1034F000521C0855D4B200200855521C9878A0B12F
:10350000D4B2521C0855D4B200200855521CD878A9
:1035100000280AD0D4B2521C0855D4B20020085555
:10352000521C13F8040F0028D7D170BC704700B5A7
:10353000134681B00222C0F86C22C36103620A46BE
:103540000021FDF7D6FC002001B000BD00B51346F8
:103550000A4681B00021FDF7CCFC002001B000BD7F
:1035600000B5134681B00322C0F86C22C0F8483180
:10357000C0F84C310A460021FDF7CAFC002001B01A
:1035800000BD00B513460A4681B00021FDF7C0FC1E
:10359000002001B000BD00B581B00421C0F86C125C
:1035A000002300220021FDF7A4FC002001B000BD93
:1035B00000B581B00521C0F86C1200230022002163
:1035C000FDF7A6FC002001B000BD000000B50C48CE
:1035D00081B0016841F400710160026842F48062C8
:1035E0000260016841F4807101600320FEF728FC4D
:1035F0000020FFF7BDFC01F0D7F8002001B000BDAE
:10360000003C02402DE9F0410D4603222C6894FA5B
:10361000A4F1B1FA81F80F21012334FA08F400F083
:10362000A2800446286803FA08F7384000F0948026
:103630006F68012F18BF022F28D1AF68A66890FAD3
:10364000A0FEBEFA8EFE4FEA4E0E02FA0EFE26EAEB
:103650000E0C90FAA0FEBEFA8EFE4FEA4E06B74060
:1036600047EA0C07A76090FAA0FEEF686668BEFA0A
:103670008EFE03FA0EFE26EA0E0690FAA0FEBEFAB1
:103680008EFE07FA0EF73743676000BF90FAA0FE80
:103690002F69E668BEFA8EFE4FEA4E0E02FA0EFE63
:1036A00026EA0E0C90FAA0FEBEFA8EFE4FEA4E06F7
:1036B000B74047EA0C07E7606F68022F36D190FAEF
:1036C000A0FCBCFA8CFC6F69BCF1080F16D290FA12
:1036D000A0FEBEFA8EFE266A4FEA8E0E01FA0EFE9C
:1036E00026EA0E0C90FAA0FEBEFA8EFE4FEA8E0677
:1036F000B74047EA0C07276218E000BF4FEA102ED8
:103700009EFAAEF6B6FA86F69EFAAEFED4F824C05D
:10371000B600BEFA8EFE01FA06F64FEA8E0E2CEACD
:10372000060607FA0EF73743676200BF90FAA0FE5D
:103730006F682668BEFA8EFE4FEA4E0E02FA0EFE43
:1037400090FAA0F026EA0E0CB0FA80F04600B740DE
:1037500047EA0C07276000BF08F10108286830FA23
:1037600008F07FF45FAF0020BDE8F08130B50400C1
:1037700081B008BF01203FD094F8350010B9204631
:1037800001F02CF8022084F8350021681B480A68F3
:1037900002400A602268136865686169E0680D4349
:1037A00021690543A0680D43A1690543206A0D43C3
:1037B000616A0543A06A0D43E16A0543206B0D432E
:1037C00005432B431360616810290BD1207F617F73
:1037D000A27F40EA0120E17F40EA0240226840EAFD
:1037E000016090612068C16841F01E01C160002045
:1037F000E064012184F8351001B030BD07F0E0FF2E
:10380000F0B5040081B026D094F83D0028B900211D
:1038100084F83C10204601F06FF8242184F83D1014
:10382000206802685208520002602068016841F472
:10383000004101602068026822F400420260FEF745
:1038400000FA01466068DFF80821904206D2DFF8EE
:103850000431994206D2012001B0F0BDDFF8F80032
:103860008142F8D32068DFF8F4504668A1FB055385
:10387000DB0CB60943EA8616466025682E6A606846
:10388000904208D34FF4967010FB03F3DFF8D0009A
:10389000A3FB00C77B0A5B1CB60943EA86132B62B5
:1038A000491E2368DD696668964209D27600B1FB3D
:1038B000F6F1491CC1F30B01042919D2042117E0C8
:1038C000A06838B906EB4606B1FBF6F1491CC1F316
:1038D0000B0108E019204643B1FBF6F1491CC1F386
:1038E0000B0141F4804108050CBF012141F4004166
:1038F000DFF8700005400D43DD6122681368E1695F
:10390000206A23F0C0030B43034313602268DFF8EF
:103910005800936821690340E0680B4303439360B8
:103920002168CA68A3696069120A034343EA022254
:10393000CA602068016841F0010101600020206434
:10394000202184F83D10206384F83E0001B0F0BDD2
:10395000A186010080841E0000093D0006BD378657
:10396000986E12830030FFFF007CFFFF2DE9F043CB
:1039700083B006460F4690469946FFF703F9054681
:1039800096F83D00202815D1306881698A0715D541
:10399000FFF7F8F8401B1A28F6D3002030632021E7
:1039A00086F83D1086F83E00316C41F0200131640C
:1039B00086F83C00022003B0BDE8F08396F83C1086
:1039C0000129F7D0012286F83C200168CA0703D4F8
:1039D000016841F001010160394637680C9C0B9881
:1039E000DDF828C0D7F800E02EF4006EC7F800E03C
:1039F000212786F83D704B46402786F83E704246A8
:103A000000273764C6F824C07085DFF82C74708DE9
:103A10003085F76201950094304600F00FFA0028D7
:103A200061D10BE0716A0A780261706A411C7162AF
:103A3000308D411E3185708D411E7185308D00287D
:103A400043D0306841690A062CD441694A0511D532
:103A50006FF48061416100203063202186F83D10C1
:103A600086F83E00316C41F00401316486F83C0078
:103A700031E000BF14F1010FE3D0FFF783F8401BE2
:103A8000844201D3002CDCD100203063202186F851
:103A90003D1086F83E00316C41F02001316486F81B
:103AA0003C0018E0716A0A780261706A411C716218
:103AB000308D411E3185708D421E7285306842699D
:103AC0005307BBD589B20029ACD12A4621463046DE
:103AD00000F07CFB58B1306C042804D130680168D8
:103AE00041F400710160012003B0BDE8F08330684B
:103AF000016841F400710160202086F83D0000213A
:103B000086F83E10002086F83C0003B0BDE8F08344
:103B10002DE9F04383B006460F4690469946FFF7DD
:103B200031F8054696F83D00202815D130688169A6
:103B30008A0715D5FFF726F8401B1A28F6D3002070
:103B40003063202186F83D1086F83E00316C41F04C
:103B50002001316486F83C00022003B0BDE8F08308
:103B600096F83C100129F7D0012286F83C20016824
:103B7000CA0703D4016841F0010101603946376882
:103B80000C9C0B98DDF828C0D7F800E02EF4006EEE
:103B9000C7F800E0222786F83D704B46402786F89C
:103BA0003E70424600273764C6F824C07085DFF8AF
:103BB0008872708D3085F76201950094304600F070
:103BC000DDF9002869D1308D38B1012811D1306874
:103BD000016821F4806101600020009031684A6929
:103BE00000928B69009300980A6842F400720A60A0
:103BF00023E002280CD13068016821F48061016063
:103C00003068026842F4006202600020009001E027
:103C10000021009131684A690092896900910098F9
:103C20000BE00169706A0170716A4A1C308D726222
:103C3000411E3185708D411E7185308D002800F048
:103C4000EF80042880F0BB8001282AD130684169C8
:103C50004A06E6D44169CA0611D4FEF793FF401B19
:103C6000844201D3002CF1D100203063202186F85A
:103C70003D1086F83E00316C41F020010AE06FF003
:103C80001001416100203063202186F83D1086F844
:103C90003E00316C316486F83C00012003B0BDE881
:103CA000F083022830D1306841694A0714D414F1F6
:103CB000010FF8D0FEF766FF401B844201D3002CB1
:103CC000F1D100203063202186F83D1086F83E00B7
:103CD000316C41F02001DDE7016841F400710160C1
:103CE00030680169706A0170716A308D4A1C411E2A
:103CF00072623185708D411E718532681069716AFA
:103D00000870706A421C91E7306841694A0714D410
:103D100014F1010FF8D0FEF735FF401B844201D3A8
:103D2000002CF1D100203063202186F83D1086F868
:103D30003E00316C41F02001ACE7016821F4806164
:103D4000016030680169706A0170716A308D4A1CC7
:103D5000411E72623185708D411E718530684169E6
:103D60004A0714D414F1010FF8D0FEF70BFF401BE3
:103D7000844201D3002CF1D100203063202186F849
:103D80003D1086F83E00316C41F0200182E7016869
:103D900041F40071016030680169706A0170716AF4
:103DA000308D4A1C411E72623185708D411E7185B5
:103DB00032681069716A0870706A421C36E73068B0
:103DC00041694A0615D44169CA063FF558AFFEF766
:103DD000D9FE401B844201D3002CF0D10020306377
:103DE000202186F83D1086F83E00316C41F020011C
:103DF00050E70069716A0870706A421C308D726207
:103E0000411E3185708D411E7185306841694A07B8
:103E10007FF513AF0069716A0870706A421C05E78C
:103E2000202086F83D00002186F83E10002086F80C
:103E30003C0003B0BDE8F0830000FFFF2DE9F04334
:103E4000074681B03868089C099D8946016841F49D
:103E5000807116469846016038684169CA0721D4C6
:103E600014F1010FF8D0FEF78DFE401B844201D300
:103E7000002CF1D100203863202187F83D1087F80D
:103E80003E00396C41F02001396487F83C00396804
:103E90000A68D00544BF4FF400713964032001B0B3
:103EA000BDE8F08309F0FE010161396848698207C5
:103EB00037D44869420519D5086840F40070086095
:103EC0006FF480613A68516100203863202187F8DF
:103ED0003D1087F83E00396C41F00401396487F8E1
:103EE0003C0001B00120BDE8F08300BF14F1010FD8
:103EF000DBD0FEF747FE401B844201D3002CD4D117
:103F000000203863202187F83D1087F83E00396C87
:103F100041F02001396487F83C0001B00120BDE880
:103F2000F083002200922A464B6900938969009130
:103F300021460098384600F00FF958B9B8F1010F42
:103F400014D03968300A08612A462146384600F004
:103F500003F958B1386C042804D13868016841F479
:103F600000710160012001B0BDE8F0833868F6B24D
:103F70000661002001B0BDE8F08300002DE9F043A8
:103F8000074681B03868089C099D8846016841F45D
:103F90008061016016463868026842F48072994672
:103FA000026038684169CA070AD414F1010FF8D0D9
:103FB000FEF7E8FD401B84427BD3002CF1D178E072
:103FC00008F0FE02026139684869820731D4486905
:103FD000420519D5086840F4007008606FF48061EC
:103FE0003A68516100203863202187F83D1087F836
:103FF0003E00396C41F00401396487F83C0001202F
:1040000001B0BDE8F08300BF14F1010FDBD0FEF773
:10401000B9FD401B844201D3002CD4D10020386369
:10402000202187F83D1087F83E00396C41F02001CF
:10403000E2E7002200922A464B69009389690091C9
:1040400021460098384600F087F840B1386C0428C3
:10405000D5D13868016841F400710160CFE7B9F14A
:10406000010F09D03968300A08612A4621463846CE
:1040700000F072F80028E9D13868F6B206612A46E5
:104080002146384600F068F80028DFD1386801681A
:1040900041F48071016038684169CA0721D414F184
:1040A000010FF8D0FEF76EFD401B844201D3002CB7
:1040B000F1D100203863202187F83D1087F83E00B9
:1040C000396C41F02001396487F83C0039680A688E
:1040D000D00544BF4FF400713964032001B0BDE83E
:1040E000F08348F00101C9B20161386841698A076B
:1040F0002DD441694A0515D5016841F4007101606C
:104100006FF480603A68506100213963202087F89D
:104110003D0087F83E10386C40F00400386487F8A2
:104120003C106CE714F1010FDFD0FEF72BFD401BB4
:10413000844201D3002CD8D100203863202187F895
:104140003D1087F83E00396C41F0200154E7002013
:1041500001B0BDE8F083000070B505460C46164678
:10416000286841690A062ED441694A0512D56FF4C0
:104170008061416100202863202185F83D1085F889
:104180003E00296C41F00401296485F83C000120BF
:1041900070BD00BF14F1010FE2D0FEF7F3FC801BED
:1041A000844201D3002CDBD100202863202185F834
:1041B0003D1085F83E00296C41F02001296485F806
:1041C0003C00012070BD002070BD000070B50546A8
:1041D0000C461646286841694A072ED441694A05AB
:1041E00012D56FF48061416100202863202185F899
:1041F0003D1085F83E00296C41F00401296485F8E2
:104200003C00012070BD00BF14F1010FE2D0FEF7A9
:10421000B9FC801B844201D3002CDBD10020286331
:10422000202185F83D1085F83E00296C41F02001E1
:10423000296485F83C00012070BD002070BD00009D
:1042400010B5104C104901222046FDF75BFE08B165
:10425000FEF780FC0D492046FDF769FE08B1FEF728
:1042600079FC0B49204601F0E3F808B1FEF772FC37
:104270002046FDF764FE18B1BDE81040FEF76ABCA9
:1042800010BD00BFD8A601207002002054010020FC
:104290005802002010B5040001D1012010BD94F88F
:1042A0003D0028B9002184F83C10204600F070FB46
:1042B000022084F83D00211D206800F00CF9012047
:1042C00084F83D00002010BD0068C16841F0010184
:1042D000C160816801F00701062903D0016841F03F
:1042E000010101600020704710B5040001D10120D8
:1042F00010BD94F83D0028B9002184F83C102046F8
:1043000001F0E0F8022084F83D00211D206800F053
:10431000E2F8012084F83D00002010BD10B50446ED
:1043200094F83C00012801D1022010BD012084F83E
:104330003C0002230C2A84F83D3017D8DFE802F055
:10434000071616160B1616160F16161613002068EB
:1043500000F013F90AE0206800F03DF906E020685B
:1043600000F06BF902E0206800F098F9012084F871
:104370003D00002184F83C10002010BD70B490F87E
:104380003C20012A08BF022000F0A280012280F810
:104390003C20022380F83D30DFF8482303689C6806
:1043A00014409C600A68130018BF102A00F0818036
:1043B000202A18BF302A7CD0402A60D0502A29D029
:1043C000602A41D0702A03D0B2F5005F11D078E0A6
:1043D000CA684B6804688968A56825F47F45294345
:1043E0000B4343EA0223A36001688A6842F0770224
:1043F00066E0CA684B6804688968A56825F47F454B
:1044000029430B4343EA0223A36001688A6842F40C
:10441000804255E0CA684B68016818318C688D6825
:104420006D086D008D6024F00A040E6826F0F00619
:1044300046EA02160E6023438B6001688A6822F008
:10444000700242F057023BE0CA684B6801681831BD
:104450008C6824F010048C600C688D6824F470441F
:1044600044EA023425F0A0050C6045EA03158D608E
:1044700001688A6822F0700242F0670220E0CA6890
:104480004B68016818318C688D686D086D008D600F
:1044900024F00A040E6826F0F00646EA02160E60C2
:1044A00023438B6001688A6822F0700242F0470261
:1044B00006E001688B6823F070031A4342F007029C
:1044C0008A60012180F83D10002280F83C20002005
:1044D00070BC7047000030B4DFF80C3204689842BA
:1044E00018BFB0F1804F0CD0DFF8002290421CBF03
:1044F0007F4DA84205D07F4A90421CBF7E4DA84206
:1045000010D14A6824F070041443984218BFB0F1E7
:10451000804F1BD0754A90421FBF754DA842754A07
:10452000904213D0744DA8421CBF744A90420DD0E3
:10453000734DA8421CBF734A904207D0724DA842E7
:104540001FBF724A9042724DA84203D1CA6824F438
:10455000407414434A6924F0800414430460984270
:104560008C68C4620A68826219BF634B9842096909
:1045700001630122426130BC7047F0B4026A520804
:1045800052000262066A446885690B688A6825F0F1
:1045900073051D4326F002061643534B98421CBF79
:1045A000554FB84207D1CA6826F00806164398420C
:1045B00026F0040602D0504B984205D14B698A6917
:1045C00024F440741C43144344608561496841638A
:1045D0000662F0BC704770B4026A22F010020262F8
:1045E000056A436884690A6824F4E64444EA0224BC
:1045F0008A6825F0200545EA02153B4A90421CBF17
:104600003D4EB04208D1CE6825F0800545EA06153A
:10461000904225F0400502D0374A904206D14E69BB
:104620008A6923F44063164343EA86034360846146
:1046300049688163056270BC704770B4026A22F4F5
:1046400080720262056A4368C4690A688E6824F051
:104650007304144325F40075234A45EA0625904265
:104660001CBF254EB04208D1CE6825F4006545EA4E
:104670000625904225F4806502D01F4A904206D15B
:104680004E698A6923F44053164343EA0613436094
:10469000C4614968C163056270BC704770B4026A46
:1046A000114E22F480520262B042046A4268C36929
:1046B0000D6823F4E64343EA05238D6824F400548F
:1046C00044EA05341CBF0C4DA84204D14D6922F4C4
:1046D000804242EA85124260C36149680164046213
:1046E00070BC70478800FFFF0000014000040040DC
:1046F00000080040000C0040000401400040014060
:10470000004401400048014000180040001C0040E7
:104710000020004030B490F83C20012A08BF02205D
:1047200032D0012280F83C20022380F83D3004681A
:104730006568A3680A6825F070051543656002681E
:10474000124CA24218BFB2F1804F11D0104CA242BD
:104750001CBF104DAA420BD00F4CA2421CBF0F4DE4
:10476000AA4205D00E4CA2421CBF0E4DAA4204D153
:10477000496823F080030B439360012280F83D20B9
:10478000002180F83C10002030BC70470000014040
:104790000004004000080040000C004000040140FC
:1047A000004001400018004081B00020009000222D
:1047B0009448416841F480414160416801F480417E
:1047C000009100990092036843F0805303600068F1
:1047D00000F080500090009801B0704730B587B06D
:1047E000044614220021684600F06DFE21688648C8
:1047F000814240F07F8000228448854D05924168C7
:1048000041F001014160416801F001010591059904
:104810000592036843F001030360016801F00101A0
:10482000059105990592036843F00403036001684C
:1048300001F004010591059905924FF41471036884
:1048400043F0020303600222006800F002000590BA
:1048500005987048009101920021029103910D2169
:1048600004916946FDF704FA0022029203924FF484
:10487000FC500221009001910D2204926946664885
:10488000FDF7F6F90022029203924FF470700221B4
:10489000009001910D22049269466048FDF7E8F905
:1048A0005F4828604FF000714FF480506861696084
:1048B0004FF480704FF48061E86129610420002288
:1048C00068620321AA60EA60AA612A62A962EA62B8
:1048D0002A63284600F002FE08B1FEF73BF9A56402
:1048E000AC632868016841F008010160026842F089
:1048F0001002026007B030BD10B586B00446142225
:10490000002101A800F0DFFD2168464881423DD129
:1049100000223E4C0092206840F001002060216897
:1049200001F0010100914FF480710098009222681B
:1049300042F0020222601222206800F00200009081
:10494000009834480191029201210391032204212D
:104950000591049201A9FDF78BF912210291012220
:10496000039210200321019004910422059201A9D1
:104970002A48FDF77DF900200090216941F40001EB
:104980002161206900F400000090009806B010BD7D
:1049900081B00068244988420BD100221948009256
:1049A000016841F008010160006800F00800009013
:1049B000009801B0704710B586B00446142200215B
:1049C00001A800F080FD21681748814217D100221C
:1049D0000E4800920222016841F0010101600121AC
:1049E000006800F00100009000980A4801910292CE
:1049F000002103910492059201A9FDF739F906B04F
:104A000010BD000040380240000005503038024020
:104A100074AB012000000240000802400004024084
:104A200028640240005C0040000C00402DE9F04F7B
:104A3000DFF8D84181B00646207E01288B4690469B
:104A4000994608BF022078D0012020760021E1613C
:104A50004CF2513AFEF796F80746DFF8B451286851
:104A6000C10306D5FEF78EF8C01B5045F7D30327C8
:104A700060E02868C10744BF01202860296811F45C
:104A8000F97F03D000F088F8012753E00027424661
:104A90004B4666B9686820F4407068606868686072
:104AA000696841F0010169608BF8002024E0012E63
:104AB0000ED1686820F440706860686840F48070C7
:104AC0006860686840F001006860ABF8002013E09F
:104AD000022E0ED1686820F440706860686840F467
:104AE00000706860686840F001006860CBF80020E2
:104AF00002E0584600F03BF8E761FEF743F806464F
:104B00002868C10306D5FEF73DF8801B5045F7D352
:104B100003270BE02868C10744BF012028602968EB
:104B200011F4F97F02D000F037F8012768684008D7
:104B30004000686000202076384601B0BDE8F08F64
:104B40003549CA680020002A09D5344ADFF8D0C0A8
:104B50000A60C1F800C0C968002948BF0120704739
:104B60002C48016841F0004101600020704730B4DA
:104B700028490C6824F440740C600D6845F44075B5
:104B80000D600C6844F001040C6040F8042BBFF386
:104B90006F8F036030BC70471D491C480A68D306FC
:104BA00005D5C26942F01002C26110230B600A6889
:104BB000930605D5C26942F00802C26120230B604A
:104BC0000A68530605D5C26942F00402C261402357
:104BD0000B600A68130605D5C26942F00202C26181
:104BE00080230B600A68D30506D5C26942F0010232
:104BF000C2614FF480730B600A68930705D5C269E0
:104C000042F02002C261022008607047D4AB01204C
:104C10000C3C0240103C0240043C0240230167452A
:104C2000AB89EFCD00220B000AD0012908BF4FF459
:104C3000807205D002290CBF4FF400724FF440720D
:104C40000C490B6823F440730B60C000D1F800C01E
:104C500042EA0C020A6040F002000A6822F0F80200
:104C60000A600B6818430860086840F480300860E8
:104C700070470000103C024030B5304C304D81B0E0
:104C8000002205F50061204600F0D9FB29462046A8
:104C900000F0DDFB002001B030BD0020704700B502
:104CA000202881B00B4604D0212805D0002001B077
:104CB00000BD0722234802E0072222491846FCF7DC
:104CC00061FE002001B000BD30B581B00A681E4C05
:104CD0000023BAB1C25CE2545B1C0A68934211D251
:104CE000C55CE5545B1C0A6893420BD2C25CE2547B
:104CF0005B1C0A68934205D2C55CE5545B1C0A68DC
:104D00009342E7D30D4800F0C7FB10480121017022
:104D1000002001B030BD10B5084CD4F890320A46DE
:104D2000D3F8141209B1012010BD0146204600F04D
:104D300086FB2046BDE8104000F08FBBD8A60120BE
:104D4000D092012068020020E4000020240100200D
:104D500070B5044682B094F83400012808BF0220E0
:104D600073D0012084F83400022584F8355020687F
:104D7000066846F4804606602068056825F002054E
:104D8000056020680FF25515066831430160A06C7C
:104D90000FF2BD01C163A06CC5640025A06C056560
:104DA000A563B3F5803FA06C256405D2256805F1A5
:104DB000280100F015FC40E041640120A063E3639A
:104DC0006264E06BB0F5803F27D3E06B4008E0639E
:104DD000A06B4000A063E06BB0F5803F1DD3E06B9B
:104DE0004008E063A06B4000A063E06BB0F5803F3B
:104DF00013D3E06B4008E063A06B4000A063E06B5E
:104E0000B0F5803F09D3E06B4008E063A06B400041
:104E1000A063E06BB0F5803FD7D2A06B801EA0638B
:104E2000A06B2064E06BE16B009102EB80032068D3
:104E300000F12801A06C00F015FD2068016841F028
:104E400001010160002084F8340002B070BD000050
:104E500030B581B0846BA06C0268A16BE1B11168C0
:104E6000A36BDD070BD4090309D5D168E36B0022DE
:104E700001EBC30100F064FFA06B401E1BE0116852
:104E80000B0319D41169E36B012201EBC30100F09C
:104E900057FFA06B401E0EE01068010302D5606C46
:104EA000D06009E01168080306D4616CE06B01EB87
:104EB00080011161206CA063A06B216C88420BD132
:104EC0002068C16841F00101C160206801688A075B
:104ED00044BF012084F8350001B030BD806B816C87
:104EE0004A6D022A1CBF012180F8351000F02FBF47
:104EF000002200F02DBF0000F0B581B0002000902E
:104F000040F2E9341848194E0168164D41F08051BD
:104F100001600121006800F080500090009831602D
:104F2000FDF730FE07462868C10307D4FDF72AFEC7
:104F3000C01BA042F7D3032001B0F0BD0120706078
:104F4000FDF720FE06462868810307D4FDF71AFE08
:104F5000801BA042F7D3032001B0F0BD002001B0B8
:104F6000F0BD0000047000404038024040000E4296
:104F7000BBBBE1B1B2F5803F80F07E80022A1ED932
:104F80008C46B1FBF2F102FB11C31B0443EA104350
:104F9000B3FBF2FC02FB1C3380B240EA0343B3FBD9
:104FA000F2F002FB103240EA0C4000237047022A64
:104FB00005D98446B0FBF2F002FB10C270474AB13B
:104FC00005D100F0010249085FEA30007047002275
:104FD0000023704700F0D6BE0B0002000021002025
:104FE0007047904271EB030CF6D3B3F5803F2FD29C
:104FF000F0B5B3FA83F7B1FA81F4A7F10F0E3D1BB8
:105000005340CEF1200602FA0EF2F3415340B5F1BF
:105010000F0746D80F3C2C444140C4F12006A04065
:10502000F1414140B1FBF3F603FB1611A2FB06452B
:10503000001BA94102D2761E8018594180EA010264
:1050400021FA0EF362FA0EF200215A403046F0BD0A
:1050500030B4B1FBF3FC03FB1C11A2FB0C45001B9D
:10506000A94103D2ACF1010C8018594130BC024671
:105070000B46604600217047B2F1807F65D3F0B5E2
:10508000B2FA82F7B1FA81F4C7F10F063D1B22FA9A
:1050900006F307F1110EF24120355A40B5F10F0722
:1050A000B8D94140C4F12006A040F1414140B1FBD4
:1050B000F3FC03FB1C11A2FB0C45001BA94103D20E
:1050C000BCF1010C801859410F2F12D30F3FC903B7
:1050D00041EA5041B1FBF3F603FB1611A2FB064572
:1050E000D4EBC030A94102D2761E8018594146EA5D
:1050F000CC3C07B34140C7F12006B840F1414140E4
:10510000B1FBF3F603FB1611A2FB0645001BA941F8
:1051100002D2761E8018594180EA010221FA0EF36C
:10512000C7F1200462FA0EF20CFA07F05A402CFA8A
:1051300004F13043F0BD80EA010221FA0EF30021B0
:1051400062FA0EF260465A40F0BD8C46B1FBF2F1B5
:1051500002FB11C31B0243EA1063B3FBF2FC02FB28
:105160001C331B024CEA002043EA1063B3FBF2FC41
:1051700002FB1C331B024CEA002043EA1063B3FB22
:10518000F2FC02FB1C331B024CEA002043EA1063D2
:10519000B3FBF2FC02FB1C324CEA002000237047F8
:1051A00070B505460026287C68B94FF400730222CA
:1051B00081212846FBF740FE0122EA624FF400738A
:1051C000022201210AE04023022281212846FBF726
:1051D00033FE0120E8624023022201212846FBF72A
:1051E0002BFE0120C5F858010823032282212846FE
:1051F000FBF722FE012028644FF4077000F0C4FD85
:105200000400C5F8904208BF012613D0D5F89402D7
:1052100001688847C4F81462C4F81862287CD4F87E
:10522000042200280CBF4FF40073402301212846BC
:10523000FBF76EFE304670BD10B504468121FBF7CA
:105240000CFE0022E26201212046FBF706FE002050
:10525000C4F8580182212046FBF7FFFD0021D4F855
:105260009002216450B1D4F8940241688847D4F880
:10527000900200F025FE0020C4F89002002010BD2E
:10528000F0B5044681B00D46D4F8906200218DF847
:105290000010ADF802100027297811F060002AD024
:1052A00020284BD1EA88EAB1687809060DD5D4F8F0
:1052B0009432D3F808C03146E047EA8831462046A8
:1052C000FEF735F9384601B0F0BD86F800023146E8
:1052D000E88886F801022046EA88FEF741F9384658
:1052E00001B0F0BDD4F8943268789C682946A04794
:1052F000384601B0F0BD68780B281FD8DFE800F011
:10530000061E1E1E1E1E1E1E1E1E0E1A94F874124F
:10531000032913D102220DF1020105E094F8740271
:1053200003280BD1012269462046FEF700F93846D2
:1053300001B0F0BD94F87402032804D02946204639
:10534000FEF79FF80227384601B0F0BDF0B50446DD
:1053500081B0D4F89022D4F89832FAB101EB8100F0
:1053600004EB8006F06998B1C1EBC10703EB87033A
:105370005B6CB0FBF3FC03FB1C0048B90025F56136
:10538000002300222046FBF7B4FD002001B0F0BD51
:105390000023C2F81432002001B0F0BD022001B099
:1053A000F0BD30B5044681B0D4F89052FBF7BFFD94
:1053B000C5F80C02D4F8900250B1D4F89422D5F874
:1053C0000402D36805F503719847002001B030BD91
:1053D000022001B030BD10B5D0F89432D0F8904220
:1053E000002B1CBF94F80002FF2807D094F801227C
:1053F0009B6821469847FF2084F80002002010BDDA
:1054000043210180064870474321018005487047C9
:1054100043210180044870470A21018003487047F6
:10542000D00100208C01002014020020480100203F
:105430000246022011B1C2F8941200207047D0F841
:105440009002C0F80812C0F8102200207047D0F86F
:105450009002C0F804120020704700B581B0D0F867
:105460009012B1B1D1F8142282B90123C1F81432DB
:10547000D1F810220263D1F81032D1F808229BB281
:105480008121FBF736FD002001B000BD012001B0F5
:1054900000BD022001B000BD00B581B0D0F890126F
:1054A00069B1D1F80422017C00290CBF4FF40073CC
:1054B00040230121FBF72CFD002001B000BD02209C
:1054C00001B000BD704710B5044610460A460146BB
:1054D000204600F0F7FC204610BD000030B581B03A
:1054E0000446FDF74FFB054614B9012001B030BD5D
:1054F000002084F83400022184F835102068026806
:1055000052085200026022681068C1070CD5FDF7EE
:1055100039FB401B0628F6D320206065032184F860
:105520003510032001B030BD1368DFF82003616837
:105530000340A0680B43E168034320690B436169A2
:105540000343A0690B43E1690343206A0B43616A8B
:105550000343042903D1E16A206B01430B43136029
:1055600023685A69606AD208042840EAC2020AD154
:10557000A56AE16A2A4331B1A06998B9002D18BF24
:10558000022D24D018D35A61204600F049F9E16D6C
:105590003F228A40826000206065012184F8351036
:1055A00001B030BDB0F5005F0AD1032DEBD8DFE8C4
:1055B00005F0100E1003E6E7B1F1C07FE3D108E07B
:1055C000032DE0D8DFE805F005050503DBE7C8019A
:1055D000D9D540216165012084F8350001B030BD86
:1055E000F0B490F83460856D0024012E08BF0220CD
:1055F00037D0012680F8346090F83570012F2CD117
:10560000022680F8356044650668376827F48027ED
:105610003760066873608368402B04D10668B26007
:105620000268D16003E0036899600168CA603F22A4
:10563000C16D8A40AA6001680A6842F016020A60D9
:10564000016C21B101680A6842F008020A60006832
:10565000016841F00101016002E080F83440022459
:105660002046F0BC7047F0B581B00446002079496F
:10567000794B0090A66D0A683768A2FB0330450B92
:10568000E06D082101FA00F007420ED020680268A0
:1056900053070AD5026822F004020260E06D8140DF
:1056A000B160616D41F001016165E06D27FA00F1C3
:1056B000CA070BD521684A69110607D5012202FAEB
:1056C00000F0B060606D40F0020060650421E06DA4
:1056D00001FA00F0074208D021680A68930704D550
:1056E000B060606D40F0040060651021E06D01FA6B
:1056F00000F007421BD021680A68130717D5B06075
:10570000206801684A0307D5006801030BD5A16C26
:1057100069B1204688470AE00168CA0503D40168D8
:1057200021F008010160216C09B120468847E06D35
:10573000202101FA00F007424BD021680A68D30605
:1057400047D5B060206894F83510052925D1026846
:1057500022F0160202602068416921F08001416157
:10576000206C002804BFA06C002804D020680168C9
:1057700021F0080101603F22E06D8240B26000210B
:1057800084F83410012084F83500216D002943D0BD
:10579000204601B0BDE8F040084701684A0307D53C
:1057A0000068010311D4616C99B12046884710E06C
:1057B0000168CA0509D4016821F0100101600020C8
:1057C00084F83400012184F83510E16B09B12046DA
:1057D0008847606D00B3606DC10716D5052084F859
:1057E0003500206801684908490001602068009977
:1057F000491C8D42009102D30168CA07F7D40020EA
:1058000084F83400012184F83510E16C21B1204680
:1058100001B0BDE8F040084701B0F0BD0000000055
:1058200070B401680A4C00BF0CA501F0FF02103AE9
:10583000A2FB04431A09890A8902AE5CC665042AE0
:1058400028BF091D8165084670BC70473F8010F075
:10585000ABAAAAAA44010020A80D74DA000610160B
:1058600000061016F0B405460020AC68802C08BF76
:105870004FF4807008D0EC6B002C1CBF6C6C002CBB
:1058800001D0EC6C24B9402068650120F0BC704761
:1058900095F83440012C00F02E82012485F8344024
:1058A00095F83560012E40F02482049C022685F88C
:1058B000356068652E68376847F4802737602E6842
:1058C00033612B685C60AC682B68402C03D19A6014
:1058D0002A68D16002E099602968CA602E68DFF802
:1058E0002044DFF82014DFF82024DFF82034A6421B
:1058F00015D39E4208BF20260ED0DFF81474BE4296
:1059000008BF4FF4006607D0DFF80874BE420CBF32
:105910004FF400164FF00066C1F8046450E0964260
:105920001BD3DFF8F473BE4208D0DFF8F073BE4239
:1059300008D14FF40066C1F8006441E02026C1F8A8
:1059400000643DE0DFF8D873BE420CBF4FF4001690
:105950004FF00066C1F8006432E0DFF8C873BE4261
:1059600018D3DFF8C473BE4207D0DFF8C073BE425D
:1059700006D14FF400664E6022E020264E601FE004
:10598000DFF8AC73BE420CBF4FF400164FF0006658
:105990004E6015E0DFF89C73BE4206D0DFF89873C6
:1059A000BE4204D14FF4006609E0202607E0DFF88C
:1059B0008C73BE420CBF4FF400164FF000660E60B1
:1059C0002E68A64215D39E4208BF10260ED0DFF8DF
:1059D0004073BE4208BF4FF4806607D0DFF83473CF
:1059E000BE420CBF4FF480164FF08066C1F80464CD
:1059F0004DE096421BD3DFF82073BE4208D0DFF89B
:105A00001C73BE4208D14FF48066C1F800643EE0CA
:105A10001026C1F800643AE0DFF80473BE420CBF00
:105A20004FF480164FF08066C1F800642FE0DFF875
:105A3000F472BE4218D3DFF8F072BE4207D0DFF82E
:105A4000EC72BE4206D14FF480664E601FE0102615
:105A50004E601CE0DFF8D872BE420CBF4FF48016D7
:105A60004FF080664E6012E0B24FBE4205D0B24F9A
:105A7000BE4204D14FF4806608E0102606E0AF4F26
:105A8000BE420CBF4FF480164FF080660E602E6849
:105A9000A64213D39E4208BF08260CD09C4FBE429C
:105AA00008BF4FF4007606D09A4FBE420CBF4FF4A9
:105AB00000264FF00076C1F8046446E0964218D301
:105AC000954FBE4207D0954FBE4208D14FF40076A5
:105AD000C1F8006439E00826C1F8006435E0904F51
